:100000008B01013062001A288B10A800030EA90092
:10001000241186182415A40CA30CAA16A20B1528CB
:100020000B30A200BB152308A500290E8300A80EE3
:10003000280E09000313831660308F0000309B00E8
:1000400007309C008312FF309F0085018601FF303E
:100050006500660020308400483C8001840AFF3E31
:10006000031D2D28863084001830AB000B30A20011
:100070000030E521001080143230E521E830B22153
:100080000330B221E630B221E630B221E630B221AF
:10009000E930B221D421D421AD00D421553C031D37
:1000A000572833302D02031D57283C1561289F2106
:1000B00003196028013C031D62283C149F21031989
:1000C000BC14BB17E830B2210330B221E630B221B4
:1000D000F330B221C830B221F430B2218F21E9309F
:1000E000B22103180028FA3C031D0028D42103186C
:1000F00000286039203C031D00283B1A8A28D4219F
:1001000003188828BB1A8A28D421031889288A282A
:100110003B16BB160330A100BB1BA10AAE010008B1
:1001200006060439BC1D03199D2880199928BC15A1
:100130009D283B13FF30650066008B170B16BB1D17
:10014000B528BB112E083D3E84002508800086306E
:100150008400AE0AA10B1D290330A100BB1BA10A1C
:10016000AE013B141830AB001D293B1CD0283B10BE
:10017000BB14B10101303D1AFF30BE08031DB100B0
:100180003E083D1A003C2F070318FF30AF00B300B4
:10019000B307031CB307031C1D29FF30B3001D293F
:1001A000BB1CEB28BB103B15B2010130BD1AFF3060
:1001B000BF08031DB2003F08BD1A003C30070318FA
:1001C000FF30B000B500B507031CB507031C1D299F
:1001D000FF30B5001D293B1D1D293B113D0DAD0014
:1001E000AD0D2D091C39AD001C3C031D8F213B1F9B
:1001F0001D290008E3392D04800084030008840AC7
:100200003F39AD19C0386500BB1F1D293C1D0F29A2
:100210003D1B80123D1F80163C12BD1B3C16400842
:10022000BC1C1C29C01A8012C01E80163C12401A29
:100230003C160F39C019F038C107811F9F282E3096
:1002400081026400AC0B3629AB0B36291830AB00A9
:100250000B122108BB1BFF3E033C031D352922085E
:100260000B3C031D352906186F280B163308B407FD
:10027000031C4529AF0803194529AF033108B7020C
:10028000370C013937060339B9003508B607031CA6
:100290005429B00803195429B0033208B807380CA0
:1002A000013938060339BA00BC196329051A6329D4
:1002B00084030008840A1039031963290230C2003C
:1002C00000178017C101C108031977290130C11F28
:1002D000003CC107C207420C01394206AD000008CC
:1002E0003F392D184038AD1880383B1B8000031073
:1002F000390D390739073A043C1E10383F39801947
:10030000C0383B1B6500AA0B9F280B12AA08031DCF
:100310008D290B30A200AA168A280B169F283B1B9A
:10032000080005090F390319061D08003B170330A3
:10033000B900BA000230B700B800C2000800F330BC
:10034000B221C830B221F330B22164303C18C83039
:10035000B221F330B2215030B221F230B221D42197
:10036000043C08008B01AD00A600A701A7090010FE
:100370006430EE210830A0000130AD0C0318A70650
:10038000A00BBD290B30A0000014801064000618DB
:10039000C729A70CA60C031C801003188014061C88
:1003A000CF29A00BC6298B018B170B162830A00074
:1003B00064006430EE21BB1DE129BB112508031048
:1003C0000800A00BD82903140800A0006400F9302D
:1003D000FF3E031DE829A00BE6290800FF3E031D90
:0403E000EE290800FA
:00000001FF
